{
  "_format": "hh-sol-artifact-1",
  "contractName": "Charity",
  "sourceName": "contracts/Charity.sol",
  "abi": [
    {
      "inputs": [
        {
          "internalType": "address",
          "name": "_ngo",
          "type": "address"
        },
        {
          "internalType": "uint256",
          "name": "_target",
          "type": "uint256"
        },
        {
          "internalType": "uint256",
          "name": "_deadline",
          "type": "uint256"
        },
        {
          "internalType": "address[]",
          "name": "_approvers",
          "type": "address[]"
        },
        {
          "internalType": "uint256",
          "name": "_approvalsRequired",
          "type": "uint256"
        },
        {
          "internalType": "address",
          "name": "_token",
          "type": "address"
        },
        {
          "internalType": "uint256",
          "name": "_tokensPerWei",
          "type": "uint256"
        }
      ],
      "stateMutability": "nonpayable",
      "type": "constructor"
    },
    {
      "anonymous": false,
      "inputs": [
        {
          "indexed": true,
          "internalType": "address",
          "name": "donor",
          "type": "address"
        },
        {
          "indexed": false,
          "internalType": "uint256",
          "name": "amount",
          "type": "uint256"
        }
      ],
      "name": "DonationReceived",
      "type": "event"
    },
    {
      "anonymous": false,
      "inputs": [
        {
          "indexed": true,
          "internalType": "address",
          "name": "approver",
          "type": "address"
        },
        {
          "indexed": true,
          "internalType": "uint256",
          "name": "milestoneIndex",
          "type": "uint256"
        }
      ],
      "name": "MilestoneApproved",
      "type": "event"
    },
    {
      "anonymous": false,
      "inputs": [
        {
          "indexed": true,
          "internalType": "uint256",
          "name": "milestoneIndex",
          "type": "uint256"
        },
        {
          "indexed": false,
          "internalType": "uint256",
          "name": "amount",
          "type": "uint256"
        }
      ],
      "name": "MilestoneReleased",
      "type": "event"
    },
    {
      "anonymous": false,
      "inputs": [
        {
          "indexed": true,
          "internalType": "address",
          "name": "previousOwner",
          "type": "address"
        },
        {
          "indexed": true,
          "internalType": "address",
          "name": "newOwner",
          "type": "address"
        }
      ],
      "name": "OwnershipTransferred",
      "type": "event"
    },
    {
      "anonymous": false,
      "inputs": [
        {
          "indexed": true,
          "internalType": "address",
          "name": "donor",
          "type": "address"
        },
        {
          "indexed": false,
          "internalType": "uint256",
          "name": "amount",
          "type": "uint256"
        }
      ],
      "name": "RefundClaimed",
      "type": "event"
    },
    {
      "anonymous": false,
      "inputs": [
        {
          "indexed": true,
          "internalType": "address",
          "name": "donor",
          "type": "address"
        },
        {
          "indexed": false,
          "internalType": "uint256",
          "name": "amount",
          "type": "uint256"
        }
      ],
      "name": "TokensRewarded",
      "type": "event"
    },
    {
      "inputs": [
        {
          "internalType": "string",
          "name": "description",
          "type": "string"
        },
        {
          "internalType": "uint256",
          "name": "percentage",
          "type": "uint256"
        }
      ],
      "name": "addMilestone",
      "outputs": [],
      "stateMutability": "nonpayable",
      "type": "function"
    },
    {
      "inputs": [],
      "name": "approvalsRequired",
      "outputs": [
        {
          "internalType": "uint256",
          "name": "",
          "type": "uint256"
        }
      ],
      "stateMutability": "view",
      "type": "function"
    },
    {
      "inputs": [
        {
          "internalType": "uint256",
          "name": "index",
          "type": "uint256"
        }
      ],
      "name": "approveMilestone",
      "outputs": [],
      "stateMutability": "nonpayable",
      "type": "function"
    },
    {
      "inputs": [
        {
          "internalType": "uint256",
          "name": "",
          "type": "uint256"
        }
      ],
      "name": "approvers",
      "outputs": [
        {
          "internalType": "address",
          "name": "",
          "type": "address"
        }
      ],
      "stateMutability": "view",
      "type": "function"
    },
    {
      "inputs": [],
      "name": "claimRefund",
      "outputs": [],
      "stateMutability": "nonpayable",
      "type": "function"
    },
    {
      "inputs": [
        {
          "internalType": "address",
          "name": "",
          "type": "address"
        }
      ],
      "name": "contributions",
      "outputs": [
        {
          "internalType": "uint256",
          "name": "",
          "type": "uint256"
        }
      ],
      "stateMutability": "view",
      "type": "function"
    },
    {
      "inputs": [],
      "name": "deadline",
      "outputs": [
        {
          "internalType": "uint256",
          "name": "",
          "type": "uint256"
        }
      ],
      "stateMutability": "view",
      "type": "function"
    },
    {
      "inputs": [],
      "name": "donate",
      "outputs": [],
      "stateMutability": "payable",
      "type": "function"
    },
    {
      "inputs": [
        {
          "internalType": "uint256",
          "name": "",
          "type": "uint256"
        }
      ],
      "name": "donors",
      "outputs": [
        {
          "internalType": "address",
          "name": "",
          "type": "address"
        }
      ],
      "stateMutability": "view",
      "type": "function"
    },
    {
      "inputs": [],
      "name": "getDonors",
      "outputs": [
        {
          "internalType": "address[]",
          "name": "",
          "type": "address[]"
        }
      ],
      "stateMutability": "view",
      "type": "function"
    },
    {
      "inputs": [
        {
          "internalType": "uint256",
          "name": "index",
          "type": "uint256"
        }
      ],
      "name": "getMilestone",
      "outputs": [
        {
          "internalType": "string",
          "name": "description",
          "type": "string"
        },
        {
          "internalType": "uint256",
          "name": "percentage",
          "type": "uint256"
        },
        {
          "internalType": "bool",
          "name": "released",
          "type": "bool"
        },
        {
          "internalType": "uint256",
          "name": "approvals",
          "type": "uint256"
        }
      ],
      "stateMutability": "view",
      "type": "function"
    },
    {
      "inputs": [],
      "name": "getMilestonesCount",
      "outputs": [
        {
          "internalType": "uint256",
          "name": "",
          "type": "uint256"
        }
      ],
      "stateMutability": "view",
      "type": "function"
    },
    {
      "inputs": [
        {
          "internalType": "address",
          "name": "",
          "type": "address"
        }
      ],
      "name": "isApprover",
      "outputs": [
        {
          "internalType": "bool",
          "name": "",
          "type": "bool"
        }
      ],
      "stateMutability": "view",
      "type": "function"
    },
    {
      "inputs": [
        {
          "internalType": "uint256",
          "name": "",
          "type": "uint256"
        },
        {
          "internalType": "address",
          "name": "",
          "type": "address"
        }
      ],
      "name": "milestoneApprovals",
      "outputs": [
        {
          "internalType": "bool",
          "name": "",
          "type": "bool"
        }
      ],
      "stateMutability": "view",
      "type": "function"
    },
    {
      "inputs": [
        {
          "internalType": "uint256",
          "name": "",
          "type": "uint256"
        }
      ],
      "name": "milestones",
      "outputs": [
        {
          "internalType": "string",
          "name": "description",
          "type": "string"
        },
        {
          "internalType": "uint256",
          "name": "percentage",
          "type": "uint256"
        },
        {
          "internalType": "bool",
          "name": "released",
          "type": "bool"
        },
        {
          "internalType": "uint256",
          "name": "approvals",
          "type": "uint256"
        }
      ],
      "stateMutability": "view",
      "type": "function"
    },
    {
      "inputs": [],
      "name": "ngo",
      "outputs": [
        {
          "internalType": "address",
          "name": "",
          "type": "address"
        }
      ],
      "stateMutability": "view",
      "type": "function"
    },
    {
      "inputs": [],
      "name": "owner",
      "outputs": [
        {
          "internalType": "address",
          "name": "",
          "type": "address"
        }
      ],
      "stateMutability": "view",
      "type": "function"
    },
    {
      "inputs": [
        {
          "internalType": "uint256",
          "name": "index",
          "type": "uint256"
        }
      ],
      "name": "releaseMilestone",
      "outputs": [],
      "stateMutability": "nonpayable",
      "type": "function"
    },
    {
      "inputs": [],
      "name": "renounceOwnership",
      "outputs": [],
      "stateMutability": "nonpayable",
      "type": "function"
    },
    {
      "inputs": [],
      "name": "target",
      "outputs": [
        {
          "internalType": "uint256",
          "name": "",
          "type": "uint256"
        }
      ],
      "stateMutability": "view",
      "type": "function"
    },
    {
      "inputs": [],
      "name": "token",
      "outputs": [
        {
          "internalType": "contract IImpactToken",
          "name": "",
          "type": "address"
        }
      ],
      "stateMutability": "view",
      "type": "function"
    },
    {
      "inputs": [],
      "name": "tokensPerWei",
      "outputs": [
        {
          "internalType": "uint256",
          "name": "",
          "type": "uint256"
        }
      ],
      "stateMutability": "view",
      "type": "function"
    },
    {
      "inputs": [],
      "name": "totalDonated",
      "outputs": [
        {
          "internalType": "uint256",
          "name": "",
          "type": "uint256"
        }
      ],
      "stateMutability": "view",
      "type": "function"
    },
    {
      "inputs": [
        {
          "internalType": "address",
          "name": "newOwner",
          "type": "address"
        }
      ],
      "name": "transferOwnership",
      "outputs": [],
      "stateMutability": "nonpayable",
      "type": "function"
    }
  ],
  "bytecode": "0x60806040523480156200001157600080fd5b50604051620033ca380380620033ca833981810160405281019062000037919062000735565b60016000819055506200005f620000536200023f60201b60201c565b6200024760201b60201c565b600073ffffffffffffffffffffffffffffffffffffffff168773ffffffffffffffffffffffffffffffffffffffff1603620000d1576040517f08c379a0000000000000000000000000000000000000000000000000000000008152600401620000c89062000868565b60405180910390fd5b86600260006101000a81548173ffffffffffffffffffffffffffffffffffffffff021916908373ffffffffffffffffffffffffffffffffffffffff16021790555085600381905550846004819055508360069080519060200190620001389291906200045e565b508260078190555081600960006101000a81548173ffffffffffffffffffffffffffffffffffffffff021916908373ffffffffffffffffffffffffffffffffffffffff16021790555080600a8190555060005b845181101562000220576001600d6000878481518110620001b157620001b06200088a565b5b602002602001015173ffffffffffffffffffffffffffffffffffffffff1673ffffffffffffffffffffffffffffffffffffffff16815260200190815260200160002060006101000a81548160ff02191690831515021790555080806200021790620008e8565b9150506200018b565b5062000232336200030d60201b60201c565b5050505050505062000a3f565b600033905090565b6000600160009054906101000a900473ffffffffffffffffffffffffffffffffffffffff16905081600160006101000a81548173ffffffffffffffffffffffffffffffffffffffff021916908373ffffffffffffffffffffffffffffffffffffffff1602179055508173ffffffffffffffffffffffffffffffffffffffff168173ffffffffffffffffffffffffffffffffffffffff167f8be0079c531659141344cd1fd0a4f28419497f9722a3daafe3b4186f6b6457e060405160405180910390a35050565b6200031d620003a360201b60201c565b600073ffffffffffffffffffffffffffffffffffffffff168173ffffffffffffffffffffffffffffffffffffffff16036200038f576040517f08c379a00000000000000000000000000000000000000000000000000000000081526004016200038690620009ab565b60405180910390fd5b620003a0816200024760201b60201c565b50565b620003b36200023f60201b60201c565b73ffffffffffffffffffffffffffffffffffffffff16620003d96200043460201b60201c565b73ffffffffffffffffffffffffffffffffffffffff161462000432576040517f08c379a0000000000000000000000000000000000000000000000000000000008152600401620004299062000a1d565b60405180910390fd5b565b6000600160009054906101000a900473ffffffffffffffffffffffffffffffffffffffff16905090565b828054828255906000526020600020908101928215620004da579160200282015b82811115620004d95782518260006101000a81548173ffffffffffffffffffffffffffffffffffffffff021916908373ffffffffffffffffffffffffffffffffffffffff160217905550916020019190600101906200047f565b5b509050620004e99190620004ed565b5090565b5b8082111562000508576000816000905550600101620004ee565b5090565b6000604051905090565b600080fd5b600080fd5b600073ffffffffffffffffffffffffffffffffffffffff82169050919050565b60006200054d8262000520565b9050919050565b6200055f8162000540565b81146200056b57600080fd5b50565b6000815190506200057f8162000554565b92915050565b6000819050919050565b6200059a8162000585565b8114620005a657600080fd5b50565b600081519050620005ba816200058f565b92915050565b600080fd5b6000601f19601f8301169050919050565b7f4e487b7100000000000000000000000000000000000000000000000000000000600052604160045260246000fd5b6200061082620005c5565b810181811067ffffffffffffffff82111715620006325762000631620005d6565b5b80604052505050565b6000620006476200050c565b905062000655828262000605565b919050565b600067ffffffffffffffff821115620006785762000677620005d6565b5b602082029050602081019050919050565b600080fd5b6000620006a56200069f846200065a565b6200063b565b90508083825260208201905060208402830185811115620006cb57620006ca62000689565b5b835b81811015620006f85780620006e388826200056e565b845260208401935050602081019050620006cd565b5050509392505050565b600082601f8301126200071a5762000719620005c0565b5b81516200072c8482602086016200068e565b91505092915050565b600080600080600080600060e0888a03121562000757576200075662000516565b5b6000620007678a828b016200056e565b97505060206200077a8a828b01620005a9565b96505060406200078d8a828b01620005a9565b955050606088015167ffffffffffffffff811115620007b157620007b06200051b565b5b620007bf8a828b0162000702565b9450506080620007d28a828b01620005a9565b93505060a0620007e58a828b016200056e565b92505060c0620007f88a828b01620005a9565b91505092959891949750929550565b600082825260208201905092915050565b7f696e76616c6964206e676f000000000000000000000000000000000000000000600082015250565b600062000850600b8362000807565b91506200085d8262000818565b602082019050919050565b60006020820190508181036000830152620008838162000841565b9050919050565b7f4e487b7100000000000000000000000000000000000000000000000000000000600052603260045260246000fd5b7f4e487b7100000000000000000000000000000000000000000000000000000000600052601160045260246000fd5b6000620008f58262000585565b91507fffffffffffffffffffffffffffffffffffffffffffffffffffffffffffffffff82036200092a5762000929620008b9565b5b600182019050919050565b7f4f776e61626c653a206e6577206f776e657220697320746865207a65726f206160008201527f6464726573730000000000000000000000000000000000000000000000000000602082015250565b60006200099360268362000807565b9150620009a08262000935565b604082019050919050565b60006020820190508181036000830152620009c68162000984565b9050919050565b7f4f776e61626c653a2063616c6c6572206973206e6f7420746865206f776e6572600082015250565b600062000a0560208362000807565b915062000a1282620009cd565b602082019050919050565b6000602082019050818103600083015262000a3881620009f6565b9050919050565b61297b8062000a4f6000396000f3fe60806040526004361061014a5760003560e01c806396f300d4116100b6578063dae0f89d1161006f578063dae0f89d14610484578063e89e4ed6146104c1578063ea1d59c914610501578063ed88c68e1461052c578063f2fde38b14610536578063fc0c546a1461055f5761014a565b806396f300d414610386578063a113074b146103b1578063b5545a3c146103dc578063c438b40f146103f3578063d3650fb81461041c578063d4b83992146104595761014a565b806342e94c901161010857806342e94c90146102645780634abfa163146102a15780636d218e48146102de578063715018a61461031b57806384b62c28146103325780638da5cb5b1461035b5761014a565b8062b370441461014f5780630b49351c1461017a57806322d60d17146101a55780632442e1cb146101d057806329dcb0cf14610210578063317debf51461023b575b600080fd5b34801561015b57600080fd5b5061016461058a565b604051610171919061182d565b60405180910390f35b34801561018657600080fd5b5061018f610590565b60405161019c919061182d565b60405180910390f35b3480156101b157600080fd5b506101ba61059d565b6040516101c7919061182d565b60405180910390f35b3480156101dc57600080fd5b506101f760048036038101906101f2919061187e565b6105a3565b6040516102079493929190611956565b60405180910390f35b34801561021c57600080fd5b5061022561068b565b604051610232919061182d565b60405180910390f35b34801561024757600080fd5b50610262600480360381019061025d919061187e565b610691565b005b34801561027057600080fd5b5061028b60048036038101906102869190611a00565b6108f2565b604051610298919061182d565b60405180910390f35b3480156102ad57600080fd5b506102c860048036038101906102c3919061187e565b61090a565b6040516102d59190611a3c565b60405180910390f35b3480156102ea57600080fd5b5061030560048036038101906103009190611a00565b610949565b6040516103129190611a57565b60405180910390f35b34801561032757600080fd5b50610330610969565b005b34801561033e57600080fd5b5061035960048036038101906103549190611ad7565b61097d565b005b34801561036757600080fd5b50610370610b66565b60405161037d9190611a3c565b60405180910390f35b34801561039257600080fd5b5061039b610b90565b6040516103a89190611bf5565b60405180910390f35b3480156103bd57600080fd5b506103c6610c1e565b6040516103d39190611a3c565b60405180910390f35b3480156103e857600080fd5b506103f1610c44565b005b3480156103ff57600080fd5b5061041a6004803603810190610415919061187e565b610ec1565b005b34801561042857600080fd5b50610443600480360381019061043e919061187e565b61111f565b6040516104509190611a3c565b60405180910390f35b34801561046557600080fd5b5061046e61115e565b60405161047b919061182d565b60405180910390f35b34801561049057600080fd5b506104ab60048036038101906104a69190611c17565b611164565b6040516104b89190611a57565b60405180910390f35b3480156104cd57600080fd5b506104e860048036038101906104e3919061187e565b611193565b6040516104f89493929190611956565b60405180910390f35b34801561050d57600080fd5b50610516611268565b604051610523919061182d565b60405180910390f35b61053461126e565b005b34801561054257600080fd5b5061055d60048036038101906105589190611a00565b6115c6565b005b34801561056b57600080fd5b50610574611649565b6040516105819190611cb6565b60405180910390f35b60055481565b6000600880549050905090565b600a5481565b6060600080600080600886815481106105bf576105be611cd1565b5b906000526020600020906004020190508060000181600101548260020160009054906101000a900460ff1683600301548380546105fb90611d2f565b80601f016020809104026020016040519081016040528092919081815260200182805461062790611d2f565b80156106745780601f1061064957610100808354040283529160200191610674565b820191906000526020600020905b81548152906001019060200180831161065757829003601f168201915b505050505093509450945094509450509193509193565b60045481565b61069961166f565b60088054905081106106e0576040517f08c379a00000000000000000000000000000000000000000000000000000000081526004016106d790611dac565b60405180910390fd5b6000600882815481106106f6576106f5611cd1565b5b906000526020600020906004020190508060020160009054906101000a900460ff1615610758576040517f08c379a000000000000000000000000000000000000000000000000000000000815260040161074f90611e18565b60405180910390fd5b600754816003015410156107a1576040517f08c379a000000000000000000000000000000000000000000000000000000000815260040161079890611e84565b60405180910390fd5b600060648260010154476107b59190611ed3565b6107bf9190611f44565b905060018260020160006101000a81548160ff0219169083151502179055506000600260009054906101000a900473ffffffffffffffffffffffffffffffffffffffff1673ffffffffffffffffffffffffffffffffffffffff168260405161082690611fa6565b60006040518083038185875af1925050503d8060008114610863576040519150601f19603f3d011682016040523d82523d6000602084013e610868565b606091505b50509050806108ac576040517f08c379a00000000000000000000000000000000000000000000000000000000081526004016108a390612007565b60405180910390fd5b837f9e069181c12760c2cd0078ed4facdbe1f3614543b0fbff5dbcac3cbc61a0b64e836040516108dc919061182d565b60405180910390a25050506108ef6116be565b50565b600b6020528060005260406000206000915090505481565b600e818154811061091a57600080fd5b906000526020600020016000915054906101000a900473ffffffffffffffffffffffffffffffffffffffff1681565b600d6020528060005260406000206000915054906101000a900460ff1681565b6109716116c8565b61097b6000611746565b565b6109856116c8565b600081118015610996575060648111155b6109d5576040517f08c379a00000000000000000000000000000000000000000000000000000000081526004016109cc90612073565b60405180910390fd5b600080600090505b600880549050811015610a3057600881815481106109fe576109fd611cd1565b5b90600052602060002090600402016001015482610a1b9190612093565b91508080610a28906120c7565b9150506109dd565b5060648282610a3f9190612093565b1115610a80576040517f08c379a0000000000000000000000000000000000000000000000000000000008152600401610a779061215b565b60405180910390fd5b6008604051806080016040528086868080601f016020809104026020016040519081016040528093929190818152602001838380828437600081840152601f19601f820116905080830192505050505050508152602001848152602001600015158152602001600081525090806001815401808255809150506001900390600052602060002090600402016000909190919091506000820151816000019081610b29919061234c565b506020820151816001015560408201518160020160006101000a81548160ff02191690831515021790555060608201518160030155505050505050565b6000600160009054906101000a900473ffffffffffffffffffffffffffffffffffffffff16905090565b6060600e805480602002602001604051908101604052809291908181526020018280548015610c1457602002820191906000526020600020905b8160009054906101000a900473ffffffffffffffffffffffffffffffffffffffff1673ffffffffffffffffffffffffffffffffffffffff1681526020019060010190808311610bca575b5050505050905090565b600260009054906101000a900473ffffffffffffffffffffffffffffffffffffffff1681565b610c4c61166f565b6004544211610c90576040517f08c379a0000000000000000000000000000000000000000000000000000000008152600401610c879061246a565b60405180910390fd5b60035460055410610cd6576040517f08c379a0000000000000000000000000000000000000000000000000000000008152600401610ccd906124d6565b60405180910390fd5b6000600b60003373ffffffffffffffffffffffffffffffffffffffff1673ffffffffffffffffffffffffffffffffffffffff16815260200190815260200160002054905060008111610d5d576040517f08c379a0000000000000000000000000000000000000000000000000000000008152600401610d5490612542565b60405180910390fd5b6000600b60003373ffffffffffffffffffffffffffffffffffffffff1673ffffffffffffffffffffffffffffffffffffffff168152602001908152602001600020819055508060056000828254610db49190612562565b9250508190555060003373ffffffffffffffffffffffffffffffffffffffff1682604051610de190611fa6565b60006040518083038185875af1925050503d8060008114610e1e576040519150601f19603f3d011682016040523d82523d6000602084013e610e23565b606091505b5050905080610e67576040517f08c379a0000000000000000000000000000000000000000000000000000000008152600401610e5e906125e2565b60405180910390fd5b3373ffffffffffffffffffffffffffffffffffffffff167f358fe4192934d3bf28ae181feda1f4bd08ca67f5e2fad55582cce5eb67304ae983604051610ead919061182d565b60405180910390a25050610ebf6116be565b565b600d60003373ffffffffffffffffffffffffffffffffffffffff1673ffffffffffffffffffffffffffffffffffffffff16815260200190815260200160002060009054906101000a900460ff16610f4d576040517f08c379a0000000000000000000000000000000000000000000000000000000008152600401610f449061264e565b60405180910390fd5b6008805490508110610f94576040517f08c379a0000000000000000000000000000000000000000000000000000000008152600401610f8b90611dac565b60405180910390fd5b600c600082815260200190815260200160002060003373ffffffffffffffffffffffffffffffffffffffff1673ffffffffffffffffffffffffffffffffffffffff16815260200190815260200160002060009054906101000a900460ff1615611032576040517f08c379a0000000000000000000000000000000000000000000000000000000008152600401611029906126ba565b60405180910390fd5b6001600c600083815260200190815260200160002060003373ffffffffffffffffffffffffffffffffffffffff1673ffffffffffffffffffffffffffffffffffffffff16815260200190815260200160002060006101000a81548160ff0219169083151502179055506001600882815481106110b1576110b0611cd1565b5b906000526020600020906004020160030160008282546110d19190612093565b92505081905550803373ffffffffffffffffffffffffffffffffffffffff167f8426e9ac286777e74d4e49f560c160c09cf048b91fb7d56e50a4b19e4d47f05b60405160405180910390a350565b6006818154811061112f57600080fd5b906000526020600020016000915054906101000a900473ffffffffffffffffffffffffffffffffffffffff1681565b60035481565b600c6020528160005260406000206020528060005260406000206000915091509054906101000a900460ff1681565b600881815481106111a357600080fd5b90600052602060002090600402016000915090508060000180546111c690611d2f565b80601f01602080910402602001604051908101604052809291908181526020018280546111f290611d2f565b801561123f5780601f106112145761010080835404028352916020019161123f565b820191906000526020600020905b81548152906001019060200180831161122257829003601f168201915b5050505050908060010154908060020160009054906101000a900460ff16908060030154905084565b60075481565b61127661166f565b600034116112b9576040517f08c379a00000000000000000000000000000000000000000000000000000000081526004016112b090612726565b60405180910390fd5b6004544211156112fe576040517f08c379a00000000000000000000000000000000000000000000000000000000081526004016112f590612792565b60405180910390fd5b6000600b60003373ffffffffffffffffffffffffffffffffffffffff1673ffffffffffffffffffffffffffffffffffffffff16815260200190815260200160002054036113a957600e339080600181540180825580915050600190039060005260206000200160009091909190916101000a81548173ffffffffffffffffffffffffffffffffffffffff021916908373ffffffffffffffffffffffffffffffffffffffff1602179055505b34600b60003373ffffffffffffffffffffffffffffffffffffffff1673ffffffffffffffffffffffffffffffffffffffff16815260200190815260200160002060008282546113f89190612093565b9250508190555034600560008282546114119190612093565b92505081905550600073ffffffffffffffffffffffffffffffffffffffff16600960009054906101000a900473ffffffffffffffffffffffffffffffffffffffff1673ffffffffffffffffffffffffffffffffffffffff161415801561147957506000600a54115b1561156e57600034600a5461148e9190611ed3565b9050600960009054906101000a900473ffffffffffffffffffffffffffffffffffffffff1673ffffffffffffffffffffffffffffffffffffffff166340c10f1933836040518363ffffffff1660e01b81526004016114ed9291906127b2565b600060405180830381600087803b15801561150757600080fd5b505af1925050508015611518575060015b1561156c573373ffffffffffffffffffffffffffffffffffffffff167f0d3ecba324ef5a283bcbd5d1a966cab18661432ab3575740c588f7a0144b0dfa82604051611563919061182d565b60405180910390a25b505b3373ffffffffffffffffffffffffffffffffffffffff167f264f630d9efa0d07053a31163641d9fcc0adafc9d9e76f1c37c2ce3a558d2c52346040516115b4919061182d565b60405180910390a26115c46116be565b565b6115ce6116c8565b600073ffffffffffffffffffffffffffffffffffffffff168173ffffffffffffffffffffffffffffffffffffffff160361163d576040517f08c379a00000000000000000000000000000000000000000000000000000000081526004016116349061284d565b60405180910390fd5b61164681611746565b50565b600960009054906101000a900473ffffffffffffffffffffffffffffffffffffffff1681565b6002600054036116b4576040517f08c379a00000000000000000000000000000000000000000000000000000000081526004016116ab906128b9565b60405180910390fd5b6002600081905550565b6001600081905550565b6116d061180c565b73ffffffffffffffffffffffffffffffffffffffff166116ee610b66565b73ffffffffffffffffffffffffffffffffffffffff1614611744576040517f08c379a000000000000000000000000000000000000000000000000000000000815260040161173b90612925565b60405180910390fd5b565b6000600160009054906101000a900473ffffffffffffffffffffffffffffffffffffffff16905081600160006101000a81548173ffffffffffffffffffffffffffffffffffffffff021916908373ffffffffffffffffffffffffffffffffffffffff1602179055508173ffffffffffffffffffffffffffffffffffffffff168173ffffffffffffffffffffffffffffffffffffffff167f8be0079c531659141344cd1fd0a4f28419497f9722a3daafe3b4186f6b6457e060405160405180910390a35050565b600033905090565b6000819050919050565b61182781611814565b82525050565b6000602082019050611842600083018461181e565b92915050565b600080fd5b600080fd5b61185b81611814565b811461186657600080fd5b50565b60008135905061187881611852565b92915050565b60006020828403121561189457611893611848565b5b60006118a284828501611869565b91505092915050565b600081519050919050565b600082825260208201905092915050565b60005b838110156118e55780820151818401526020810190506118ca565b60008484015250505050565b6000601f19601f8301169050919050565b600061190d826118ab565b61191781856118b6565b93506119278185602086016118c7565b611930816118f1565b840191505092915050565b60008115159050919050565b6119508161193b565b82525050565b600060808201905081810360008301526119708187611902565b905061197f602083018661181e565b61198c6040830185611947565b611999606083018461181e565b95945050505050565b600073ffffffffffffffffffffffffffffffffffffffff82169050919050565b60006119cd826119a2565b9050919050565b6119dd816119c2565b81146119e857600080fd5b50565b6000813590506119fa816119d4565b92915050565b600060208284031215611a1657611a15611848565b5b6000611a24848285016119eb565b91505092915050565b611a36816119c2565b82525050565b6000602082019050611a516000830184611a2d565b92915050565b6000602082019050611a6c6000830184611947565b92915050565b600080fd5b600080fd5b600080fd5b60008083601f840112611a9757611a96611a72565b5b8235905067ffffffffffffffff811115611ab457611ab3611a77565b5b602083019150836001820283011115611ad057611acf611a7c565b5b9250929050565b600080600060408486031215611af057611aef611848565b5b600084013567ffffffffffffffff811115611b0e57611b0d61184d565b5b611b1a86828701611a81565b93509350506020611b2d86828701611869565b9150509250925092565b600081519050919050565b600082825260208201905092915050565b6000819050602082019050919050565b611b6c816119c2565b82525050565b6000611b7e8383611b63565b60208301905092915050565b6000602082019050919050565b6000611ba282611b37565b611bac8185611b42565b9350611bb783611b53565b8060005b83811015611be8578151611bcf8882611b72565b9750611bda83611b8a565b925050600181019050611bbb565b5085935050505092915050565b60006020820190508181036000830152611c0f8184611b97565b905092915050565b60008060408385031215611c2e57611c2d611848565b5b6000611c3c85828601611869565b9250506020611c4d858286016119eb565b9150509250929050565b6000819050919050565b6000611c7c611c77611c72846119a2565b611c57565b6119a2565b9050919050565b6000611c8e82611c61565b9050919050565b6000611ca082611c83565b9050919050565b611cb081611c95565b82525050565b6000602082019050611ccb6000830184611ca7565b92915050565b7f4e487b7100000000000000000000000000000000000000000000000000000000600052603260045260246000fd5b7f4e487b7100000000000000000000000000000000000000000000000000000000600052602260045260246000fd5b60006002820490506001821680611d4757607f821691505b602082108103611d5a57611d59611d00565b5b50919050565b7f696e76616c696420696e64657800000000000000000000000000000000000000600082015250565b6000611d96600d836118b6565b9150611da182611d60565b602082019050919050565b60006020820190508181036000830152611dc581611d89565b9050919050565b7f616c72656164792072656c656173656400000000000000000000000000000000600082015250565b6000611e026010836118b6565b9150611e0d82611dcc565b602082019050919050565b60006020820190508181036000830152611e3181611df5565b9050919050565b7f6e6f7420656e6f75676820617070726f76616c73000000000000000000000000600082015250565b6000611e6e6014836118b6565b9150611e7982611e38565b602082019050919050565b60006020820190508181036000830152611e9d81611e61565b9050919050565b7f4e487b7100000000000000000000000000000000000000000000000000000000600052601160045260246000fd5b6000611ede82611814565b9150611ee983611814565b9250828202611ef781611814565b91508282048414831517611f0e57611f0d611ea4565b5b5092915050565b7f4e487b7100000000000000000000000000000000000000000000000000000000600052601260045260246000fd5b6000611f4f82611814565b9150611f5a83611814565b925082611f6a57611f69611f15565b5b828204905092915050565b600081905092915050565b50565b6000611f90600083611f75565b9150611f9b82611f80565b600082019050919050565b6000611fb182611f83565b9150819050919050565b7f7472616e73666572206661696c65640000000000000000000000000000000000600082015250565b6000611ff1600f836118b6565b9150611ffc82611fbb565b602082019050919050565b6000602082019050818103600083015261202081611fe4565b9050919050565b7f696e76616c69642070657263656e746167650000000000000000000000000000600082015250565b600061205d6012836118b6565b915061206882612027565b602082019050919050565b6000602082019050818103600083015261208c81612050565b9050919050565b600061209e82611814565b91506120a983611814565b92508282019050808211156120c1576120c0611ea4565b5b92915050565b60006120d282611814565b91507fffffffffffffffffffffffffffffffffffffffffffffffffffffffffffffffff820361210457612103611ea4565b5b600182019050919050565b7f746f74616c203e31303000000000000000000000000000000000000000000000600082015250565b6000612145600a836118b6565b91506121508261210f565b602082019050919050565b6000602082019050818103600083015261217481612138565b9050919050565b7f4e487b7100000000000000000000000000000000000000000000000000000000600052604160045260246000fd5b60008190508160005260206000209050919050565b60006020601f8301049050919050565b600082821b905092915050565b60006008830261220c7fffffffffffffffffffffffffffffffffffffffffffffffffffffffffffffffff826121cf565b61221686836121cf565b95508019841693508086168417925050509392505050565b600061224961224461223f84611814565b611c57565b611814565b9050919050565b6000819050919050565b6122638361222e565b61227761226f82612250565b8484546121dc565b825550505050565b600090565b61228c61227f565b61229781848461225a565b505050565b5b818110156122bb576122b0600082612284565b60018101905061229d565b5050565b601f821115612300576122d1816121aa565b6122da846121bf565b810160208510156122e9578190505b6122fd6122f5856121bf565b83018261229c565b50505b505050565b600082821c905092915050565b600061232360001984600802612305565b1980831691505092915050565b600061233c8383612312565b9150826002028217905092915050565b612355826118ab565b67ffffffffffffffff81111561236e5761236d61217b565b5b6123788254611d2f565b6123838282856122bf565b600060209050601f8311600181146123b657600084156123a4578287015190505b6123ae8582612330565b865550612416565b601f1984166123c4866121aa565b60005b828110156123ec578489015182556001820191506020850194506020810190506123c7565b868310156124095784890151612405601f891682612312565b8355505b6001600288020188555050505b505050505050565b7f646561646c696e65206e6f742072656163686564000000000000000000000000600082015250565b60006124546014836118b6565b915061245f8261241e565b602082019050919050565b6000602082019050818103600083015261248381612447565b9050919050565b7f746172676574206d657400000000000000000000000000000000000000000000600082015250565b60006124c0600a836118b6565b91506124cb8261248a565b602082019050919050565b600060208201905081810360008301526124ef816124b3565b9050919050565b7f6e6f20636f6e747269627574696f6e7300000000000000000000000000000000600082015250565b600061252c6010836118b6565b9150612537826124f6565b602082019050919050565b6000602082019050818103600083015261255b8161251f565b9050919050565b600061256d82611814565b915061257883611814565b92508282039050818111156125905761258f611ea4565b5b92915050565b7f726566756e64206661696c656400000000000000000000000000000000000000600082015250565b60006125cc600d836118b6565b91506125d782612596565b602082019050919050565b600060208201905081810360008301526125fb816125bf565b9050919050565b7f6e6f7420616e20617070726f7665720000000000000000000000000000000000600082015250565b6000612638600f836118b6565b915061264382612602565b602082019050919050565b600060208201905081810360008301526126678161262b565b9050919050565b7f616c726561647920617070726f76656400000000000000000000000000000000600082015250565b60006126a46010836118b6565b91506126af8261266e565b602082019050919050565b600060208201905081810360008301526126d381612697565b9050919050565b7f646f6e6174696f6e206d757374206265203e2030000000000000000000000000600082015250565b60006127106014836118b6565b915061271b826126da565b602082019050919050565b6000602082019050818103600083015261273f81612703565b9050919050565b7f63616d706169676e20656e646564000000000000000000000000000000000000600082015250565b600061277c600e836118b6565b915061278782612746565b602082019050919050565b600060208201905081810360008301526127ab8161276f565b9050919050565b60006040820190506127c76000830185611a2d565b6127d4602083018461181e565b9392505050565b7f4f776e61626c653a206e6577206f776e657220697320746865207a65726f206160008201527f6464726573730000000000000000000000000000000000000000000000000000602082015250565b60006128376026836118b6565b9150612842826127db565b604082019050919050565b600060208201905081810360008301526128668161282a565b9050919050565b7f5265656e7472616e637947756172643a207265656e7472616e742063616c6c00600082015250565b60006128a3601f836118b6565b91506128ae8261286d565b602082019050919050565b600060208201905081810360008301526128d281612896565b9050919050565b7f4f776e61626c653a2063616c6c6572206973206e6f7420746865206f776e6572600082015250565b600061290f6020836118b6565b915061291a826128d9565b602082019050919050565b6000602082019050818103600083015261293e81612902565b905091905056fea264697066735822122032f8e648f1309431e93d3afbf11a753c32ab2a1e8f8943e31419e2c60794b94b64736f6c63430008110033",
  "linkReferences": {},
  "deployedLinkReferences": {}
}